:100000000C946C000C9494000C9494000C94940048
:100010000C9494000C9494000C9494000C94940010
:100020000C9494000C9494000C9494000C94940000
:100030000C9494000C9494000C9494000C949400F0
:100040000C9410030C9494000C94DE020C94B802EF
:100050000C9494000C9494000C9494000C949400D0
:100060000C9494000C94940023205250494354382B
:10007000203520626F6172647320737461636B203A
:1000800076312E3100000000080002010000030458
:10009000070000000000000000000000002500280C
:1000A000002B0000000000240027002A00040404A4
:1000B0000404040404020202020202030303030311
:1000C00003010204081020408001020408102001EE
:1000D0000204081020005A0311241FBECFEFD8E0FD
:1000E000DEBFCDBF11E0A0E0B1E0E6E0F4E102C088
:1000F00005900D92A632B107D9F724E0A6E2B1E04F
:1001000001C01D92A135B207E1F710E0CCE6D0E0C6
:1001100004C02197FE010E94FB09CB36D107C9F725
:100120000E9493030C94010A0C9400000F931F93F8
:10013000CF93DF93EC016D834E8300914F041091B8
:100140005004B8017695679590E080E00E945508CC
:10015000688779878A879B87B80190E080E00E9452
:1001600055089B01AC016FE672E183E890E40E94C0
:10017000B40723EE35E244E952E40E940C096C878F
:100180007D878E879F87DF91CF911F910F91089573
:1001900090E0FC01EF53FF4F249183559F4FFC01EA
:1001A0008491882399F090E0880F991FFC01ED5508
:1001B000FF4FA591B491FC01E756FF4F85919491B3
:1001C0008FB7F894EC91E22BEC938FBF089590E0F9
:1001D000FC01EB57FF4F2491FC01EF53FF4F34918B
:1001E000FC01E355FF4FE491EE23B1F0222339F0F7
:1001F0002330E9F090F4213001F1223011F1F0E0E8
:10020000EE0FFF1FE756FF4FA591B4918FB7F894FB
:10021000EC913E2B3C938FBF08952730A9F02830F6
:10022000C9F0243061F7809180008F7D03C08091F8
:1002300080008F7780938000E2CF84B58F7784BD74
:10024000DECF84B58F7DFBCF8091B0008F77809318
:10025000B000D5CF8091B0008F7DF9CFAF92BF9223
:10026000CF92DF92EF92FF920F931F93CF93DF9382
:100270006C017B018B01040F151FEB015E01AE18B1
:10028000BF08C017D10759F06991D601ED91FC91D3
:100290000190F081E02DC6010995892B79F7C50100
:1002A000DF91CF911F910F91FF90EF90DF90CF9052
:1002B000BF90AF900895FC01538D448D252F30E001
:1002C000842F90E0821B930B541710F0CF96089563
:1002D00001970895FC01918D828D981761F0A28D90
:1002E000AE0FBF2FB11D5D968C91928D9F5F9F7356
:1002F000928F90E008958FEF9FEF0895FC01918D0C
:10030000828D981731F0828DE80FF11D858D90E078
:1003100008958FEF9FEF0895FC01918D228D892F15
:1003200090E0805C9F4F821B91098F7399270895FD
:1003300080EB93E00E948C0121E0892B09F420E0FE
:10034000822F089580E090E0892B29F00E94980187
:1003500081110C9400000895FC01A48DA80FB92F01
:10036000B11DA35ABF4F2C91848D90E001968F73DD
:100370009927848FA689B7892C93A089B1898C91FC
:10038000837080648C93938D848D981306C002884B
:10039000F389E02D80818F7D80830895EF92FF9215
:1003A0000F931F93CF93DF93EC0181E0888F9B8D98
:1003B0008C8D98131AC0E889F989808185FF15C052
:1003C0009FB7F894EE89FF896083E889F989808175
:1003D0008370806480839FBF81E090E0DF91CF9144
:1003E0001F910F91FF90EF900895F62E0B8D10E066
:1003F0000F5F1F4F0F731127E02E8C8D8E110CC0D5
:100400000FB607FCFACFE889F989808185FFF5CF1F
:10041000CE010E94AC01F1CFEB8DEC0FFD2FF11D51
:10042000E35AFF4FF0829FB7F8940B8FEA89FB895C
:1004300080818062CFCFCF93DF93EC01888D8823BA
:10044000B9F0AA89BB89E889F9898C9185FD03C037
:10045000808186FD0DC00FB607FCF7CF8C9185FF1C
:10046000F2CF808185FFEDCFCE010E94AC01E9CFB4
:10047000DF91CF9108953FB7F89480912B0190912F
:100480002C01A0912D01B0912E0126B5A89B05C08D
:100490002F3F19F00196A11DB11D3FBFBA2FA92F03
:1004A000982F8827BC01CD01620F711D811D911D00
:1004B00042E0660F771F881F991F4A95D1F708956C
:1004C0008EBD00000DB407FEFDCF8EB50895FC0172
:1004D00001900020E9F73197AF01481B590BBC018F
:1004E00080EB93E00C942E018F929F92AF92BF927B
:1004F0000F931F93CF93DF93CDB7DEB7A1970FB6BE
:10050000F894DEBF0FBECDBF19A2423008F44AE016
:100510008E010F5D1F4F842E912CB12CA12CA501B3
:1005200094010E94D909E62FB901CA01EA30F4F416
:10053000E05DD801EE938D01232B242B252B79F739
:1005400090E080E0109719F0CD010E946702A1961B
:100550000FB6F894DEBF0FBECDBFDF91CF911F91D4
:100560000F91BF90AF909F908F900895E95CE1CF7D
:100570001F920F920FB60F9211242F933F934F9318
:100580005F936F937F938F939F93AF93BF93EF93FB
:10059000FF9380EB93E00E94AC01FF91EF91BF913C
:1005A000AF919F918F917F916F915F914F913F910B
:1005B0002F910F900FBE0F901F9018951F920F92C2
:1005C0000FB60F9211242F938F939F93EF93FF9366
:1005D000E091C003F091C1038081E091C603F091E6
:1005E000C70382FD1BC090818091C9038F5F8F7309
:1005F0002091CA03821741F0E091C903F0E0E05571
:10060000FC4F958F8093C903FF91EF919F918F913C
:100610002F910F900FBE0F901F9018958081F4CFEF
:100620001F920F920FB60F9211242F933F938F9327
:100630009F93AF93BF938091270190912801A09140
:100640002901B0912A013091260123E0230F2D3793
:1006500058F50196A11DB11D209326018093270115
:1006600090932801A0932901B0932A0180912B0136
:1006700090912C01A0912D01B0912E010196A11D08
:10068000B11D80932B0190932C01A0932D01B09369
:100690002E01BF91AF919F918F913F912F910F901C
:1006A0000FBE0F901F90189526E8230F0296A11DEC
:1006B000B11DD2CFE0EBF3E01382128288EE93E01B
:1006C000A0E0B0E084839583A683B78384E091E0C3
:1006D0009183808385EC90E09587848784EC90E01B
:1006E0009787868780EC90E0918B808B81EC90E0FF
:1006F000938B828B82EC90E0958B848B86EC90E0E0
:10070000978B868B118E128E138E148E80E090E163
:100710009093500480934F048AE992E090934E04A2
:1007200080934D040895CF93DF93CDB7DEB728971C
:100730000FB6F894DEBF0FBECDBF789484B582604B
:1007400084BD84B5816084BD85B5826085BD85B575
:10075000816085BD80916E00816080936E001092F3
:10076000810080918100826080938100809181006E
:1007700081608093810080918000816080938000FF
:100780008091B10084608093B1008091B00081605D
:100790008093B00080917A00846080937A00809189
:1007A0007A00826080937A0080917A0081608093E1
:1007B0007A0080917A00806880937A001092C1005C
:1007C00086E00E94C80086E00E94E70087E00E9461
:1007D000C80087E00E94E70088E00E94C80088E027
:1007E0000E94E70089E00E94C80089E00E94E700BB
:1007F0008AE00E94C8008AE00E94E700E091C003FE
:10080000F091C10382E08083E091BC03F091BD03CD
:100810001082E091BE03F091BF0383E380831092C6
:10082000C803E091C403F091C50386E08083E091A2
:10083000C203F091C303808180618083E091C20391
:10084000F091C303808188608083E091C203F091BE
:10085000C303808180688083E091C203F091C30369
:1008600080818F7D808328E630E03A832983E98187
:10087000FA816491662361F080EB93E00E94CE01DF
:1008800029813A812F5F3F4F3A832983892B79F75A
:1008900082E191E00E9467023FB73983F89480912A
:1008A0002F01811123C0E7EBF0E08491EBECF0E045
:1008B0009491E82FF0E0EE0FFF1FED55FF4FA5914B
:1008C000B491EC91E92319F48AE00E94E7008AE0F0
:1008D0000E94C8008CB580618CBD8CB580648CBDD5
:1008E0008DE00E94C8008BE00E94C80080912F011B
:1008F0008F5F80932F0149814FBF4AE067E080E31B
:1009000091E00E9496004AE066E080E491E00E9457
:1009100096004AE065E080E591E00E9496004AE09A
:1009200064E080E691E00E9496004AE063E080E7A0
:1009300091E00E9496004AE062E080E891E00E9427
:1009400096004AE061E080E991E00E9496004AE06A
:1009500060E080EA91E00E94960046E067E080EB6C
:1009600091E00E94960046E066E080EC91E00E94F3
:10097000960046E065E080ED91E00E94960046E03A
:1009800064E080EE91E00E94960046E063E080EF34
:1009900091E00E94960046E062E080E092E00E94D2
:1009A000960046E061E080E192E00E94960046E019
:1009B00060E080E292E00E94960047E067E080E31A
:1009C00092E00E94960047E066E080E492E00E9498
:1009D000960047E065E080E592E00E94960047E0DF
:1009E00064E080E692E00E94960047E063E080E7E2
:1009F00092E00E94960047E062E080E892E00E9468
:100A0000960047E061E080E992E00E94960047E0AE
:100A100060E080EA92E00E94960048E067E080EBA8
:100A200092E00E94960048E066E080EC92E00E942E
:100A3000960048E065E080ED92E00E94960048E074
:100A400064E080EE92E00E94960048E063E080EF70
:100A500092E00E94960048E062E080E093E00E940D
:100A6000960048E061E080E193E00E94960048E053
:100A700060E080E293E00E94960049E067E080E356
:100A800093E00E94960049E066E080E493E00E94D3
:100A9000960049E065E080E593E00E94960049E019
:100AA00064E080E693E00E94960049E063E080E71E
:100AB00093E00E94960049E062E080E893E00E94A3
:100AC000960049E061E080E993E00E94960049E0E9
:100AD00060E080EA93E00E94960080E391E09887CE
:100AE0008F83E0914D04F0914E04FE83ED830E94CC
:100AF0003B022B013C01EF81F885C084D184E28464
:100B0000F384312C212C80E0812C912C5401182F5E
:100B10002D813E812215330509F4F4C00E943B0269
:100B200064197509860997096D327140810591052F
:100B300008F489C04CE2440E41E0541E611C711C53
:100B4000EF81F88506818581F4E08F9FC001112433
:100B50008C7180660A3009F078C02A980E94600281
:100B600080E00E946002898380E00E9460020A3077
:100B700009F07CC02A9A998140E1949F9001112448
:100B8000682F70E084E0759567958A95E1F7622B90
:100B9000732B80914F04909150040197861797070B
:100BA00009F075C022E0EF81F8852483EF81F88594
:100BB000658170E090E080E04AE00E94740284E287
:100BC00091E00E946702EF81F885668170E090E015
:100BD00080E04AE00E94740284E291E00E94670291
:100BE000EF81F8858481811144C1C080D180E28089
:100BF000F380A7019601C701B6010E94BF098823AF
:100C000009F4A5C085E191E00E94670282E191E0CC
:100C10000E9467022F813885205F3F4F38872F83DE
:100C200080EB93E08217930709F05BCFE0E0F0E000
:100C3000EF2B09F452CF0E949801882309F44DCF7D
:100C40000E9400004ACF10E063CF063011F45E9896
:100C500085CF073011F45F9881CF083011F42898C0
:100C60007DCF093009F07ACF299878CF063011F47A
:100C70005E9A81CF073011F45F9A7DCF083011F46E
:100C8000289A79CF093009F076CF299A74CF90E06D
:100C900080E00E94550869837A838B839C83A70137
:100CA00096010E94420720E030E040E85AE30E94AB
:100CB0000C099B01AC01C701B6010E9443076B01FF
:100CC0007C01EF81F88520853185428553856981D6
:100CD0007A818B819C810E9442079B01AC010E941A
:100CE0000C099B01AC01C501B4010E9443074B01F3
:100CF0005C01FFEF2F1A3F0A81E0112309F407CFAF
:100D000021E051CFED81FE81BF0190E080E00E94A3
:100D100055089B01AC01C501B4010E94B4070E94B3
:100D20007F099B01AC01EF81F88564857585868517
:100D300097850E940C09EF81F88560837183828317
:100D40009383C086D186E286F38614822FCF460134
:100D50005701E894B7F82FEF3FEF4FE75FE7C50182
:100D6000B4010E94BF0981110DC02FEF3FEF4FE783
:100D70005FE7C501B4010E94AF0718161CF489E1B2
:100D800091E042CF2FEF3FEF4FE75FE4C701B6019D
:100D90000E94070918161CF48DE191E035CF2FEF62
:100DA0003FEF4FE75FECC701B6010E94AF0787FD39
:100DB000F3CF20E030E0A901C701B6010E94AF07E0
:100DC00087FF09C06DE280EB93E00E94CE01F7FA45
:100DD000F094F7F8F0942AE037ED43EA5BE3C701BB
:100DE000B6010E9443074B015C010E9426086B017B
:100DF0007C010E9455089B01AC01C501B4010E9411
:100E000042074B015C014AE0C701B6010E9474022F
:100E10006EE280EB93E00E94CE0120E030E040E201
:100E200051E4C501B4010E940C094B015C010E9410
:100E300026086B01F12CE12C4AE0C701B6010E94A3
:100E40007402C701B6010E9455089B01AC01C5019F
:100E5000B4010E94420720E030E040E251E40E94E9
:100E60000C090E94260890E080E04AE00E9474028B
:100E7000CDCE81E291E00E946702EF81F885648126
:100E800070E0F1CF5058BB27AA270E945A070C9454
:100E9000CD080E94BF0838F00E94C60820F039F43F
:100EA0009F3F19F426F40C94BC080EF4E095E7FB80
:100EB0000C94B608E92F0E94DE0858F3BA176207AF
:100EC00073078407950720F079F4A6F50C940009C0
:100ED0000EF4E0950B2EBA2FA02D0B01B901900155
:100EE0000C01CA01A0011124FF27591B99F0593F99
:100EF00050F4503E68F11A16F040A22F232F342FE1
:100F00004427585FF3CF469537952795A795F0402E
:100F10005395C9F77EF41F16BA0B620B730B840B43
:100F2000BAF09150A1F0FF0FBB1F661F771F881FFB
:100F3000C2F70EC0BA0F621F731F841F48F4879553
:100F400077956795B795F7959E3F08F0B0CF939545
:100F5000880F08F09927EE0F9795879508950E94BE
:100F6000920808F481E008950E94C8070C94CD0807
:100F70000E94C60858F00E94BF0840F029F45F3F65
:100F800029F00C94B60851110C9401090C94BC087A
:100F90000E94DE0868F39923B1F3552391F3951B62
:100FA000550BBB27AA2762177307840738F09F5F8A
:100FB0005F4F220F331F441FAA1FA9F335D00E2EF7
:100FC0003AF0E0E832D091505040E695001CCAF764
:100FD0002BD0FE2F29D0660F771F881FBB1F261727
:100FE00037074807AB07B0E809F0BB0B802DBF01FE
:100FF000FF2793585F4F3AF09E3F510578F00C94CD
:10100000B6080C9401095F3FE4F3983ED4F386954B
:1010100077956795B795F7959F5FC9F7880F911DED
:101020009695879597F90895E1E0660F771F881FD9
:10103000BB1F621773078407BA0720F0621B730B8C
:10104000840BBA0BEE1F88F7E09508950E94E6081E
:1010500088F09F5798F0B92F9927B751B0F0E1F079
:10106000660F771F881F991F1AF0BA95C9F714C029
:10107000B13091F00E940009B1E008950C9400098C
:10108000672F782F8827B85F39F0B93FCCF3869562
:1010900077956795B395D9F73EF4909580957095BF
:1010A00061957F4F8F4F9F4F0895E89409C097FB3C
:1010B0003EF490958095709561957F4F8F4F9F4F2F
:1010C0009923A9F0F92F96E9BB279395F695879573
:1010D00077956795B795F111F8CFFAF4BB0F11F436
:1010E00060FF1BC06F5F7F4F8F4F9F4F16C08823DD
:1010F00011F096E911C0772321F09EE8872F762F13
:1011000005C0662371F096E8862F70E060E02AF053
:101110009A95660F771F881FDAF7880F969587953F
:1011200097F90895990F0008550FAA0BE0E8FEEF14
:1011300016161706E807F907C0F012161306E4079B
:10114000F50798F0621B730B840B950B39F40A2694
:1011500061F0232B242B252B21F408950A2609F472
:10116000A140A6958FEF811D811D089597F99F6776
:1011700080E870E060E008959FEF80EC089500241F
:101180000A941616170618060906089500240A94EC
:1011900012161306140605060895092E0394000C72
:1011A00011F4882352F0BB0F40F4BF2B11F460FF01
:1011B00004C06F5F7F4F8F4F9F4F089557FD90582A
:1011C000440F551F59F05F3F71F04795880F97FB0B
:1011D000991F61F09F3F79F08795089512161306C5
:1011E0001406551FF2CF4695F1DF08C016161706F4
:1011F0001806991FF1CF8695710561050894089529
:10120000E894BB2766277727CB0197F908950E94BA
:10121000920808F48FEF08950E941F090C94CD08DE
:101220000E94BF0838F00E94C60820F0952311F0F4
:101230000C94B6080C94BC0811240C9401090E946B
:10124000DE0870F3959FC1F3950F50E0551F629F24
:10125000F001729FBB27F00DB11D639FAA27F00D0F
:10126000B11DAA1F649F6627B00DA11D661F829F36
:101270002227B00DA11D621F739FB00DA11D621F1B
:10128000839FA00D611D221F749F3327A00D611D38
:10129000231F849F600D211D822F762F6A2F11241A
:1012A0009F5750409AF0F1F088234AF0EE0FFF1F4D
:1012B000BB1F661F771F881F91505040A9F79E3FA4
:1012C000510580F00C94B6080C9401095F3FE4F3DB
:1012D000983ED4F3869577956795B795F795E795FA
:1012E0009F5FC1F7FE2B880F911D9695879597F903
:1012F000089519F416F40C94BC080C94C4090E94C7
:10130000E608B8F39923C9F3B6F39F57550B87FF47
:101310000E94D2090024A0E640EA90018058569528
:10132000979528F4805C660F771F881F20F026179A
:101330003707480730F4621B730B840B20293129CF
:101340004A2BA69517940794202531254A2758F74C
:10135000660F771F881F20F026173707480730F4DD
:10136000620B730B840B200D311D411DA09581F77D
:10137000B901842F9158880F9695879508950E94FA
:101380009208880B990B08959F3F31F0915020F4FB
:10139000879577956795B795880F911D9695879551
:1013A00097F9089591505040660F771F881FD2F724
:1013B0000895A1E21A2EAA1BBB1BFD010DC0AA1F96
:1013C000BB1FEE1FFF1FA217B307E407F50720F0AE
:1013D000A21BB30BE40BF50B661F771F881F991F29
:1013E0001A9469F760957095809590959B01AC0172
:1013F000BD01CF010895EE0FFF1F0590F491E02D80
:061400000994F894FFCFEF
:1014060000000000CE012E015B011B028C016A0167
:101416007E010D0A006E616E00696E66006F76666B
:0614260000657272200057
:00000001FF
